{
  "contractName": "TodoList",
  "abi": [
    {
      "inputs": [],
      "stateMutability": "nonpayable",
      "type": "constructor"
    },
    {
      "anonymous": false,
      "inputs": [
        {
          "indexed": true,
          "internalType": "address",
          "name": "previousOwner",
          "type": "address"
        },
        {
          "indexed": true,
          "internalType": "address",
          "name": "newOwner",
          "type": "address"
        }
      ],
      "name": "OwnershipTransferred",
      "type": "event"
    },
    {
      "anonymous": false,
      "inputs": [
        {
          "indexed": false,
          "internalType": "uint256",
          "name": "id",
          "type": "uint256"
        },
        {
          "indexed": false,
          "internalType": "bool",
          "name": "completed",
          "type": "bool"
        }
      ],
      "name": "TaskCompleted",
      "type": "event"
    },
    {
      "anonymous": false,
      "inputs": [
        {
          "indexed": false,
          "internalType": "uint256",
          "name": "id",
          "type": "uint256"
        },
        {
          "indexed": false,
          "internalType": "string",
          "name": "content",
          "type": "string"
        },
        {
          "indexed": false,
          "internalType": "bool",
          "name": "completed",
          "type": "bool"
        }
      ],
      "name": "TaskCreated",
      "type": "event"
    },
    {
      "anonymous": false,
      "inputs": [
        {
          "indexed": false,
          "internalType": "uint256",
          "name": "id",
          "type": "uint256"
        }
      ],
      "name": "TaskDeleted",
      "type": "event"
    },
    {
      "inputs": [],
      "name": "owner",
      "outputs": [
        {
          "internalType": "address",
          "name": "",
          "type": "address"
        }
      ],
      "stateMutability": "view",
      "type": "function",
      "constant": true
    },
    {
      "inputs": [],
      "name": "renounceOwnership",
      "outputs": [],
      "stateMutability": "nonpayable",
      "type": "function"
    },
    {
      "inputs": [],
      "name": "taskCount",
      "outputs": [
        {
          "internalType": "uint256",
          "name": "",
          "type": "uint256"
        }
      ],
      "stateMutability": "view",
      "type": "function",
      "constant": true
    },
    {
      "inputs": [
        {
          "internalType": "uint256",
          "name": "",
          "type": "uint256"
        }
      ],
      "name": "tasks",
      "outputs": [
        {
          "internalType": "uint256",
          "name": "id",
          "type": "uint256"
        },
        {
          "internalType": "string",
          "name": "content",
          "type": "string"
        },
        {
          "internalType": "bool",
          "name": "completed",
          "type": "bool"
        }
      ],
      "stateMutability": "view",
      "type": "function",
      "constant": true
    },
    {
      "inputs": [
        {
          "internalType": "address",
          "name": "newOwner",
          "type": "address"
        }
      ],
      "name": "transferOwnership",
      "outputs": [],
      "stateMutability": "nonpayable",
      "type": "function"
    },
    {
      "inputs": [
        {
          "internalType": "string",
          "name": "_content",
          "type": "string"
        }
      ],
      "name": "createTask",
      "outputs": [],
      "stateMutability": "nonpayable",
      "type": "function"
    },
    {
      "inputs": [
        {
          "internalType": "uint256",
          "name": "_id",
          "type": "uint256"
        }
      ],
      "name": "deleteTask",
      "outputs": [],
      "stateMutability": "nonpayable",
      "type": "function"
    },
    {
      "inputs": [
        {
          "internalType": "uint256",
          "name": "_id",
          "type": "uint256"
        }
      ],
      "name": "toggleCompleted",
      "outputs": [],
      "stateMutability": "nonpayable",
      "type": "function"
    }
  ],
  "bytecode": "0x608060405260006001553480156200001657600080fd5b50620000376200002b6200008360201b60201c565b6200008b60201b60201c565b6200007d6040518060400160405280600f81526020017f5265616420596f7572204269626c6500000000000000000000000000000000008152506200014f60201b60201c565b620004df565b600033905090565b60008060009054906101000a900473ffffffffffffffffffffffffffffffffffffffff169050816000806101000a81548173ffffffffffffffffffffffffffffffffffffffff021916908373ffffffffffffffffffffffffffffffffffffffff1602179055508173ffffffffffffffffffffffffffffffffffffffff168173ffffffffffffffffffffffffffffffffffffffff167f8be0079c531659141344cd1fd0a4f28419497f9722a3daafe3b4186f6b6457e060405160405180910390a35050565b60016000815480929190620001649062000316565b91905055506040518060600160405280600154815260200182815260200160001515815250600260006001548152602001908152602001600020600082015181600001556020820151816001019080519060200190620001c69291906200022d565b5060408201518160020160006101000a81548160ff0219169083151502179055509050507f05d0fb833127fc08168556d0e7ca9554fc3f6bc843b3b7d2bf1c35aea6bab660600154826000604051620002229392919062000436565b60405180910390a150565b8280546200023b90620004a9565b90600052602060002090601f0160209004810192826200025f5760008555620002ab565b82601f106200027a57805160ff1916838001178555620002ab565b82800160010185558215620002ab579182015b82811115620002aa5782518255916020019190600101906200028d565b5b509050620002ba9190620002be565b5090565b5b80821115620002d9576000816000905550600101620002bf565b5090565b7f4e487b7100000000000000000000000000000000000000000000000000000000600052601160045260246000fd5b6000819050919050565b600062000323826200030c565b91507fffffffffffffffffffffffffffffffffffffffffffffffffffffffffffffffff821415620003595762000358620002dd565b5b600182019050919050565b6200036f816200030c565b82525050565b600081519050919050565b600082825260208201905092915050565b60005b83811015620003b157808201518184015260208101905062000394565b83811115620003c1576000848401525b50505050565b6000601f19601f8301169050919050565b6000620003e58262000375565b620003f1818562000380565b93506200040381856020860162000391565b6200040e81620003c7565b840191505092915050565b60008115159050919050565b620004308162000419565b82525050565b60006060820190506200044d600083018662000364565b8181036020830152620004618185620003d8565b905062000472604083018462000425565b949350505050565b7f4e487b7100000000000000000000000000000000000000000000000000000000600052602260045260246000fd5b60006002820490506001821680620004c257607f821691505b60208210811415620004d957620004d86200047a565b5b50919050565b610f3880620004ef6000396000f3fe608060405234801561001057600080fd5b50600436106100885760003560e01c80638d9776721161005b5780638d977672146100eb5780638da5cb5b1461011d578063b6cb58a51461013b578063f2fde38b1461015957610088565b8063111002aa1461008d578063455f5024146100a9578063560f3192146100c5578063715018a6146100e1575b600080fd5b6100a760048036038101906100a29190610a62565b610175565b005b6100c360048036038101906100be9190610ae1565b61024d565b005b6100df60048036038101906100da9190610ae1565b6103da565b005b6100e96104eb565b005b61010560048036038101906101009190610ae1565b610573565b60405161011493929190610bc0565b60405180910390f35b610125610632565b6040516101329190610c3f565b60405180910390f35b61014361065b565b6040516101509190610c5a565b60405180910390f35b610173600480360381019061016e9190610ca1565b610661565b005b6001600081548092919061018890610cfd565b919050555060405180606001604052806001548152602001828152602001600015158152506002600060015481526020019081526020016000206000820151816000015560208201518160010190805190602001906101e8929190610825565b5060408201518160020160006101000a81548160ff0219169083151502179055509050507f05d0fb833127fc08168556d0e7ca9554fc3f6bc843b3b7d2bf1c35aea6bab66060015482600060405161024293929190610bc0565b60405180910390a150565b6000600260008381526020019081526020016000206040518060600160405290816000820154815260200160018201805461028790610d75565b80601f01602080910402602001604051908101604052809291908181526020018280546102b390610d75565b80156103005780601f106102d557610100808354040283529160200191610300565b820191906000526020600020905b8154815290600101906020018083116102e357829003601f168201915b505050505081526020016002820160009054906101000a900460ff16151515158152505090508060400151158160400190151590811515815250508060026000848152602001908152602001600020600082015181600001556020820151816001019080519060200190610375929190610825565b5060408201518160020160006101000a81548160ff0219169083151502179055509050507fe21fa966ca5cd02748c0752352d18c48165e61cb55b4c29cccf924b5a95fcff18282604001516040516103ce929190610da7565b60405180910390a15050565b6103e2610759565b73ffffffffffffffffffffffffffffffffffffffff16610400610632565b73ffffffffffffffffffffffffffffffffffffffff1614610456576040517f08c379a000000000000000000000000000000000000000000000000000000000815260040161044d90610e1c565b60405180910390fd5b6002600082815260200190815260200160002060008082016000905560018201600061048291906108ab565b6002820160006101000a81549060ff0219169055505060018060008282546104aa9190610e3c565b925050819055507fd078b251d950cc55c44340be1db732337ef4939a76e1367ee271ad2cb19c46af816040516104e09190610c5a565b60405180910390a150565b6104f3610759565b73ffffffffffffffffffffffffffffffffffffffff16610511610632565b73ffffffffffffffffffffffffffffffffffffffff1614610567576040517f08c379a000000000000000000000000000000000000000000000000000000000815260040161055e90610e1c565b60405180910390fd5b6105716000610761565b565b600260205280600052604060002060009150905080600001549080600101805461059c90610d75565b80601f01602080910402602001604051908101604052809291908181526020018280546105c890610d75565b80156106155780601f106105ea57610100808354040283529160200191610615565b820191906000526020600020905b8154815290600101906020018083116105f857829003601f168201915b5050505050908060020160009054906101000a900460ff16905083565b60008060009054906101000a900473ffffffffffffffffffffffffffffffffffffffff16905090565b60015481565b610669610759565b73ffffffffffffffffffffffffffffffffffffffff16610687610632565b73ffffffffffffffffffffffffffffffffffffffff16146106dd576040517f08c379a00000000000000000000000000000000000000000000000000000000081526004016106d490610e1c565b60405180910390fd5b600073ffffffffffffffffffffffffffffffffffffffff168173ffffffffffffffffffffffffffffffffffffffff16141561074d576040517f08c379a000000000000000000000000000000000000000000000000000000000815260040161074490610ee2565b60405180910390fd5b61075681610761565b50565b600033905090565b60008060009054906101000a900473ffffffffffffffffffffffffffffffffffffffff169050816000806101000a81548173ffffffffffffffffffffffffffffffffffffffff021916908373ffffffffffffffffffffffffffffffffffffffff1602179055508173ffffffffffffffffffffffffffffffffffffffff168173ffffffffffffffffffffffffffffffffffffffff167f8be0079c531659141344cd1fd0a4f28419497f9722a3daafe3b4186f6b6457e060405160405180910390a35050565b82805461083190610d75565b90600052602060002090601f016020900481019282610853576000855561089a565b82601f1061086c57805160ff191683800117855561089a565b8280016001018555821561089a579182015b8281111561089957825182559160200191906001019061087e565b5b5090506108a791906108eb565b5090565b5080546108b790610d75565b6000825580601f106108c957506108e8565b601f0160209004906000526020600020908101906108e791906108eb565b5b50565b5b808211156109045760008160009055506001016108ec565b5090565b6000604051905090565b600080fd5b600080fd5b600080fd5b600080fd5b6000601f19601f8301169050919050565b7f4e487b7100000000000000000000000000000000000000000000000000000000600052604160045260246000fd5b61096f82610926565b810181811067ffffffffffffffff8211171561098e5761098d610937565b5b80604052505050565b60006109a1610908565b90506109ad8282610966565b919050565b600067ffffffffffffffff8211156109cd576109cc610937565b5b6109d682610926565b9050602081019050919050565b82818337600083830152505050565b6000610a05610a00846109b2565b610997565b905082815260208101848484011115610a2157610a20610921565b5b610a2c8482856109e3565b509392505050565b600082601f830112610a4957610a4861091c565b5b8135610a598482602086016109f2565b91505092915050565b600060208284031215610a7857610a77610912565b5b600082013567ffffffffffffffff811115610a9657610a95610917565b5b610aa284828501610a34565b91505092915050565b6000819050919050565b610abe81610aab565b8114610ac957600080fd5b50565b600081359050610adb81610ab5565b92915050565b600060208284031215610af757610af6610912565b5b6000610b0584828501610acc565b91505092915050565b610b1781610aab565b82525050565b600081519050919050565b600082825260208201905092915050565b60005b83811015610b57578082015181840152602081019050610b3c565b83811115610b66576000848401525b50505050565b6000610b7782610b1d565b610b818185610b28565b9350610b91818560208601610b39565b610b9a81610926565b840191505092915050565b60008115159050919050565b610bba81610ba5565b82525050565b6000606082019050610bd56000830186610b0e565b8181036020830152610be78185610b6c565b9050610bf66040830184610bb1565b949350505050565b600073ffffffffffffffffffffffffffffffffffffffff82169050919050565b6000610c2982610bfe565b9050919050565b610c3981610c1e565b82525050565b6000602082019050610c546000830184610c30565b92915050565b6000602082019050610c6f6000830184610b0e565b92915050565b610c7e81610c1e565b8114610c8957600080fd5b50565b600081359050610c9b81610c75565b92915050565b600060208284031215610cb757610cb6610912565b5b6000610cc584828501610c8c565b91505092915050565b7f4e487b7100000000000000000000000000000000000000000000000000000000600052601160045260246000fd5b6000610d0882610aab565b91507fffffffffffffffffffffffffffffffffffffffffffffffffffffffffffffffff821415610d3b57610d3a610cce565b5b600182019050919050565b7f4e487b7100000000000000000000000000000000000000000000000000000000600052602260045260246000fd5b60006002820490506001821680610d8d57607f821691505b60208210811415610da157610da0610d46565b5b50919050565b6000604082019050610dbc6000830185610b0e565b610dc96020830184610bb1565b9392505050565b7f4f776e61626c653a2063616c6c6572206973206e6f7420746865206f776e6572600082015250565b6000610e06602083610b28565b9150610e1182610dd0565b602082019050919050565b60006020820190508181036000830152610e3581610df9565b9050919050565b6000610e4782610aab565b9150610e5283610aab565b925082821015610e6557610e64610cce565b5b828203905092915050565b7f4f776e61626c653a206e6577206f776e657220697320746865207a65726f206160008201527f6464726573730000000000000000000000000000000000000000000000000000602082015250565b6000610ecc602683610b28565b9150610ed782610e70565b604082019050919050565b60006020820190508181036000830152610efb81610ebf565b905091905056fea26469706673582212200ce17fe2b3e2c06662cb144944bca9f83c84549db0cbcf38c0fe221bc36f88cd64736f6c634300080a0033",
  "immutableReferences": {},
  "source": "// SPDX-License-Identifier: MIT\n// pragma solidity ^0.5.0; // set version of solidity to use\npragma solidity >=0.4.22 <0.9.0; // set version of solidity to use\n\nimport \"@openzeppelin/contracts/access/Ownable.sol\";\n\ncontract TodoList is Ownable {\n// contract TodoList {\n\n  // public provide a function to access a variable or functiopn\n\n  // keep track of no of tasks\n  // state variable written to the storage/ blockchain\n  // state of contract changes with changes of variable\n  // change read taskCount from contract\n  uint public taskCount = 0;\n\n  // custom datatype\n  struct Task {\n    uint id;\n    string content;\n    bool completed;\n  }\n\n  // mapping is a key => value pair\n  // you declare datatype of key and value\n  mapping(uint => Task) public tasks;\n\n  event TaskCreated(\n    uint id,\n    string content,\n    bool completed\n  );\n\n  event TaskCompleted(\n    uint id,\n    bool completed\n  );\n\n  event TaskDeleted(\n    uint id\n  );\n\n  // called everytime contract is run for first rime\n  constructor() public {\n    // populate todolist\n    createTask(\"Read Your Bible\");\n    // createTask(\"Second Task\");\n  }\n\n  // creating new task\n  function createTask(string memory _content) public {\n    // getting an id\n    // increment taskCount by 1\n    // assign this as the id of the task\n    taskCount ++;\n\n    // new task and defaults to false\n    tasks[taskCount] = Task(taskCount, _content, false);\n\n    // broadcast an event for a consumer to subscribe\n    emit TaskCreated(taskCount, _content, false);\n  }\n\n  function deleteTask(uint _id) public onlyOwner{\n    delete tasks[_id];\n    taskCount -= 1;\n    emit TaskDeleted(_id);\n  }\n\n  function toggleCompleted(uint _id) public {\n    Task memory _task = tasks[_id]; // store in local variable in memory\n    _task.completed = !_task.completed;\n    tasks[_id] = _task;\n\n    emit TaskCompleted(_id, _task.completed);\n  }\n\n  \n\n}\n",
  "sourcePath": "C:\\Users\\laryh\\Desktop\\Projects\\blockchain\\solidity-svelte\\contracts\\TodoList.sol",
  "compiler": {
    "name": "solc",
    "version": "0.8.10+commit.fc410830.Emscripten.clang"
  },
  "schemaVersion": "3.4.3",
  "updatedAt": "2021-11-20T10:40:00.540Z",
  "networkType": "ethereum",
  "devdoc": {
    "kind": "dev",
    "methods": {
      "owner()": {
        "details": "Returns the address of the current owner."
      },
      "renounceOwnership()": {
        "details": "Leaves the contract without owner. It will not be possible to call `onlyOwner` functions anymore. Can only be called by the current owner. NOTE: Renouncing ownership will leave the contract without an owner, thereby removing any functionality that is only available to the owner."
      },
      "transferOwnership(address)": {
        "details": "Transfers ownership of the contract to a new account (`newOwner`). Can only be called by the current owner."
      }
    },
    "version": 1
  },
  "userdoc": {
    "kind": "user",
    "methods": {},
    "version": 1
  }
}