{
  "contractName": "TodoList",
  "abi": [
    {
      "inputs": [],
      "name": "taskCount",
      "outputs": [
        {
          "internalType": "uint256",
          "name": "",
          "type": "uint256"
        }
      ],
      "stateMutability": "view",
      "type": "function",
      "constant": true
    }
  ],
  "bytecode": "0x60806040526000805534801561001457600080fd5b5060b3806100236000396000f3fe6080604052348015600f57600080fd5b506004361060285760003560e01c8063b6cb58a514602d575b600080fd5b60336047565b604051603e91906064565b60405180910390f35b60005481565b6000819050919050565b605e81604d565b82525050565b6000602082019050607760008301846057565b9291505056fea26469706673582212203ea406cab792f19244b75bf193f5e4bbebb2f25fb44a8114ffff1d280da7154364736f6c634300080a0033",
  "immutableReferences": {},
  "source": "// SPDX-License-Identifier: MIT\n// pragma solidity ^0.5.0; // set version of solidity to use\npragma solidity >=0.4.22 <0.9.0; // set version of solidity to use\n\ncontract TodoList {\n  // constructor() public {\n  // }\n\n  // keep track of no of tasks\n  // state variable written to the blockchain\n  // state of contract changes with changes of variable\n  // change read taskCount from contract\n  uint public taskCount = 0;\n}\n",
  "sourcePath": "C:\\Users\\laryh\\Desktop\\Projects\\blockchain\\solidity-svelte\\contracts\\TodoList.sol",
  "compiler": {
    "name": "solc",
    "version": "0.8.10+commit.fc410830.Emscripten.clang"
  },
  "schemaVersion": "3.4.3",
  "updatedAt": "2021-11-18T10:31:07.437Z",
  "networkType": "ethereum",
  "devdoc": {
    "kind": "dev",
    "methods": {},
    "version": 1
  },
  "userdoc": {
    "kind": "user",
    "methods": {},
    "version": 1
  }
}